:1070000055C000008AC0000088C0000086C0000093
:1070100084C0000082C0000080C000007EC000006C
:107020007CC000007AC0000088C5000076C0000067
:1070300074C0000072C0000070C000006EC000008C
:107040006CC000006AC0000068C0000066C000009C
:10705000D5C1000062C0000060C000005EC000003A
:107060005CC000005AC0000058C0000056C00000BC
:1070700054C0000052C0000050C000004EC00000CC
:107080004CC000004AC0000048C0000046C00000DC
:1070900044C0000042C0000040C000003EC00000EC
:1070A0003CC000003AC0000038C0000011241FBEE0
:1070B000CFEFDAE0DEBFCDBF04B603FE19C080918A
:1070C0007F019091800182349C4D91F484B7877F39
:1070D00084BF88E10FB6F89480936000109260003E
:1070E0000FBE1092800110927F01E0E0F0E0099560
:1070F00011E0A0E0B1E0E0E5FEE702C005900D92EE
:10710000A236B107D9F721E0A2E6B1E001C01D9295
:10711000AF37B207E1F73CD199C672CF8823C9F0E7
:107120009091F3002091F20030E0392B232B69F489
:107130009091E8009B7F9093E8009091E80092FD89
:1071400006C09EB39111F9CF04C09091F100815017
:10715000E5CF089530916F0120916E0190916D01FE
:1071600080916C019093640180936501C9019093B3
:1071700062018093630108951F93CF93DF93CDB78E
:10718000DEB727970FB6F894DEBF0FBECDBF909144
:10719000740180916A019923D1F0843049F480917F
:1071A0006B01811108C080916C018F3F21F45AC09E
:1071B000853009F4ADC08AE08093000183E08093BC
:1071C00072018091EB0080628093EB00D7C0843025
:1071D00009F448C028F4813051F08330F1F0CEC07A
:1071E000853009F495C0863009F4BCC0C7C0109141
:1071F0006B01123008F0C2C0ADDF11110CC08091DC
:1072000064019091650123E0FC0120935700E8950B
:1072100007B600FCFDCF85E007C080916B01982F79
:107220009D7F29F497DF89E080930001A7C081301A
:1072300009F0A4C0E0E0F0E084918F3F69F0109283
:107240006601F0936501E09364018AE08093000198
:1072500085E08093720192C03196E11520E7F20734
:1072600059F78CC080916B01833071F581E0809378
:107270007301809170019091710120916C01892BB3
:1072800061F0213009F07AC090916F0180916E0118
:10729000909367018093680171C0211112C082E44C
:1072A0009CED9093800180937F012CE088E190E039
:1072B0000FB6F894A895809360000FBE20936000ED
:1072C0005DC0109201015AC0811158C080916C01BB
:1072D0008F3F09F053C0E0E0F0E083E095E0809359
:1072E0005700E89507B600FCFDCF90935700E8954E
:1072F00007B600FCFDCFE058FF4FE11520E7F2078D
:1073000071F781E180935700E8951092740136C0BF
:1073100080E28D838CED8E838BEF8F8388E589836C
:107320008EE18A8385E98B8387E88C8320916C01C9
:1073300080916B01811105C0FE01E20FF11D858175
:107340000EC08130D9F4822F90E0FE01203610F477
:10735000BF9702C0EC55F109E80FF91F80818093B7
:1073600069010CC080916B01833041F480916C0104
:10737000811104C080916D018093660127960FB63C
:10738000F894DEBF0FBECDBFDF91CF911F9108955E
:1073900084B7877F84BF88E10FB6F894809360003C
:1073A000109260000FBE90E080E80FB6F8948093D2
:1073B0006100909361000FBEC1E0C5BF82E085BF50
:1073C0009FD3C0936F0083E0809381007894809175
:1073D0000101882311F01CD5FACF8091730181112E
:1073E000FACF3BD310926F001092810081E085BFED
:1073F00015BEE0916701F091680109951F920F9207
:107400000FB60F9211240F900FBE0F901F9018957A
:10741000CF92DF92EF92FF920F931F93CF93DF9360
:10742000809177018F77813209F0FCC180917D01D5
:1074300090917E0190937101809370018091780109
:10744000833009F4B0C158F48130D1F0823009F0B2
:10745000E9C18091E800877F8093E8000FC1853003
:1074600009F4C7C108F4BDC1863009F0DBC18091C1
:10747000E800877F8093E80082E080930001C9C123
:107480008091E800877F8093E800809173018823D2
:1074900019F072DE10927301809170019091710168
:1074A000009761F12091E80022FD04C02EB3211164
:1074B000F9CFB8C12091F10020936A010197909310
:1074C000710180937001EBE6F1E02091F30080916F
:1074D000F20090E0922B892B81F08091F100819352
:1074E0008091700190917101019790937101809347
:1074F000700181E0E037F80741F73EDE809100013E
:10750000853009F0B3C08091700190917101892B91
:1075100021F482E080930001A9C08AE1FFDDE090C0
:107520006401F09065018E2D8F71F8DD009162018C
:10753000109163010F5F1F4F0E191F0980916B019E
:1075400081118AC0E801D695C795C70120916601CF
:10755000A22FB0E08C019D01F12CEE24E39465E0B4
:10756000D62E73E0C72E209709F446C06091F30031
:107570004091F20050E0562B452BD1F021977091AD
:10758000F1006091F100472F562FFC010A01E092B3
:107590005700E8951124F394AC01BD014E5F5F4F95
:1075A0006F4F7F4FDB01CA01F0E4FF120EC00FC026
:1075B0004091E8004B7F4093E8004091E80042FD95
:1075C000DDCF4EB34111F9CF2DC1209761F6F801FF
:1075D000D0925700E89507B600FCFDCF209709F43C
:1075E000C2CFFA01C0925700E89507B600FCFDCF64
:1075F0008A019B01F12CB7CF8091620190916301C8
:10760000909365018093640181E180935700E89530
:107610002BC02091F3008091F20090E0922B892BF7
:1076200049F48091E8008B7F8093E8008091E80026
:1076300082FF16C0015011096091F1008091640130
:1076400090916501F5D38091640190916501019657
:10765000909365018093640101151105D1F604C072
:107660008EB38111E3CFDEC080E158DD8091E80068
:107670008B7F96C08EB3882309F4D4C08091E80034
:1076800080FFF8CF80910001893091F08A3059F461
:1076900080916B01813039F4909164018091650192
:1076A0009093F10002C0809169018093F10075C050
:1076B0004091640150916501209162013091630114
:1076C0002F5F3F4F241B350B80916B01811136C01A
:1076D000CA0140916601A42FB0E036952795211587
:1076E000310519F16091F3004091F20050E0562B02
:1076F0004032510569F44091E8004E7F4093E80024
:107700004091E80040FD04C04EB34111F9CF8AC05A
:10771000FC01459154914093F1005093F100029681
:10772000A11DB11D21503109DACF809162019091E4
:10773000630190936501809364012CC0823051F500
:10774000E901209739F12091F3008091F20090E057
:10775000922B809769F48091E8008E7F8093E800F7
:107760008091E80080FD04C08EB38111F9CF5AC02A
:10777000809164019091650153D38093F1008091D1
:107780006401909165010196909365018093640175
:107790002197D7CF82E0809300018091E8008E7F0F
:1077A0008093E80036C08091E800877F8093E800EE
:1077B0008091E80080FD04C08EB38111F9CF32C002
:1077C000809172018093F1001092F1001092F1000B
:1077D0001092F100809100018093F1001092F1006D
:1077E000DCCF8091E800877F8093E80010927201DF
:1077F00010C08091E800877F8093E8008091E800C6
:1078000080FD04C08EB38111F9CF0CC080910001BE
:107810004CCFDF91CF911F910F91FF90EF90DF90B0
:10782000CF90FCC0DF91CF911F910F91FF90EF900F
:10783000DF90CF900895292F30E02230310539F0C4
:107840002330310549F02130310561F410C08BE15E
:1078500090E024E331E01EC0882371F0813089F08C
:107860008230A1F080E090E020E030E013C082E1BF
:1078700090E02FE431E00EC084E090E020E331E0BE
:1078800009C088E190E026E131E004C082E190E0A7
:1078900022E031E0FA0131832083089507B600FC2D
:1078A000FDCFF999FECF23E0FB0120935700E89527
:1078B00007B600FCFDCF81E180935700E89508955D
:1078C00007B600FCFDCFF999FECF25E0FB01209320
:1078D0005700E89507B600FCFDCF81E18093570083
:1078E000E895089507B600FCFDCFF999FECF21E099
:1078F000FB010A0120935700E8951124089521E225
:10790000FC01209357008491089529E0FC01209305
:10791000570084910895E1E0F0E089E080935700FA
:107920008491089507B600FCFDCFF999FECF8095AC
:1079300099E0E1E0F0E0082E90935700E895089573
:1079400020917D0130917E012617370748F061159F
:10795000710539F42091E8002E7F2093E80001C0E2
:10796000B901FC0120E061157105A1F18EB38823F6
:10797000F1F18530F1F18091E80083FD3CC0809108
:10798000E80082FF06C08091E80082FF26C080E008
:1079900008958091E80080FFE6CF2091F300809168
:1079A000F20090E0922B6115710551F08032910543
:1079B00038F421912093F100615071090196F3CFC1
:1079C00021E0809709F020E08091E8008E7F80938D
:1079D000E800C9CF2111CACFD6CF8EB3882339F0A2
:1079E000853039F08091E80083FFCDCF04C082E07C
:1079F000089583E0089581E00895EBEEF0E0808142
:107A000081608083EDEEF0E010826093EC004083B3
:107A10008091EE00881F8827881F08958091770144
:107A200087FD05C08091E80080FF0DC010C08091E7
:107A3000E80082FD04C08EB38111F9CF08958091D2
:107A4000E8008B7F07C08EB38111ECCF0895809141
:107A5000E8008E7F8093E800089562D069D0E0EE60
:107A6000F0E0808181608083E8EDF0E080818F77B5
:107A7000808319BCA7EDB0E08C918E7F8C938081C0
:107A80008F7E80831092760108950F931F93CF937A
:107A9000DF9346D04DD0C8EDD0E088818F778883C2
:107AA00088818068888388818F7D888319BC1EBA0D
:107AB0001092750100EE10E0F80180818B7F8083C9
:107AC00088818160888342E260E080E096DFE1EEB9
:107AD000F0E080818E7F8083E2EEF0E08081816043
:107AE0008083808188608083F80180818E7F80839D
:107AF000888180618883DF91CF911F910F910895D4
:107B0000E8EDF0E080818F7E8083E7EDF0E080811A
:107B10008160808384E082BF81E080937601B5CF6D
:107B2000E8EDF0E080818E7F80831092E20008957E
:107B30001092DA001092E10008951F920F920FB692
:107B40000F9211242F933F934F935F936F937F93E3
:107B50008F939F93AF93BF93EF93FF938091DA003E
:107B600080FF1BC08091D80080FF17C08091DA0091
:107B70008E7F8093DA008091D90080FF0BC080E176
:107B800089BD82E189BD09B400FEFDCF81E08EBBD5
:107B90003ED103C019BC1EBA3AD18091E10080FFEA
:107BA00017C08091E20080FF13C08091E2008E7FB9
:107BB0008093E2008091E20080618093E2008091F6
:107BC000D80080628093D80019BC85E08EBB1FD19D
:107BD0008091E10084FF2EC08091E20084FF2AC0E2
:107BE00080E189BD82E189BD09B400FEFDCF8091AD
:107BF000D8008F7D8093D8008091E1008F7E8093A4
:107C0000E1008091E2008F7E8093E2008091E200AB
:107C100081608093E20080917501882311F084E0F7
:107C200007C08091E30087FF02C083E001C081E0CC
:107C30008EBBEDD08091E10083FF21C08091E200F6
:107C400083FF1DC08091E100877F8093E10082E087
:107C50008EBB109275018091E1008E7F8093E100D0
:107C60008091E2008E7F8093E2008091E20080614B
:107C70008093E20042E260E080E0BFDEC8D0FF9186
:107C8000EF91BF91AF919F918F917F916F915F9194
:107C90004F913F912F910F900FBE0F901F9018950D
:107CA0001F93CF93DF9300D0CDB7DEB7E7E7F1E0C6
:107CB0008091F100819381E0EF37F807C9F7A8DBE5
:107CC0008091E80083FF8FC09091770180917801C7
:107CD0008630E1F128F4882351F08530B1F083C07B
:107CE000883009F453C0893009F462C07CC09D7F9C
:107CF000903809F078C08091E800877F8093E80091
:107D00001092F1001092F1004CC091116CC01091D2
:107D100079011F778091E3008078812B8093E300C5
:107D20008091E800877F8093E80078DE8091E8000A
:107D300080FFFCCF8091E30080688093E3001123F3
:107D400011F083E001C082E08EBB4DC090589230AC
:107D500008F049C0AE014F5F5F4F60917B01809199
:107D6000790190917A0167DD009709F43CC0209178
:107D7000E800277F2093E800BC0189819A81E0DD3B
:107D80008091E8008B7F8093E8002DC0903859F5F2
:107D90008091E800877F8093E8008091750180934F
:107DA000F1008091E8008E7F8093E80037DE1BC0F1
:107DB000911119C0909179019230A8F48091E80056
:107DC000877F8093E8009093750128DE809175018C
:107DD000811104C08091E30087FF02C084E001C0EC
:107DE00081E08EBB14D08091E80083FF0AC08091AF
:107DF000E800877F8093E8008091EB0080628093A9
:107E0000EB000F900F90DF91CF911F91089508958F
:107E10008EB3882321F08091E80083FD41CF08953F
:107E2000F999FECF92BD81BDF89A992780B5089542
:107E3000262FF999FECF1FBA92BD81BD20BD0FB686
:107E4000F894FA9AF99A0FBE01960895F894FFCF24
:107E5000020112034C00550046004100200044007E
:107E600046005500000018034400650061006E00E4
:107E70002000430061006D00650072006100000099
:107E80000403090409021B000101008032090400F7
:107E90000000FE0102000921030000000C10011285
:107EA00001100100000020EB03F42F00000102008C
:027EB0000100CF
:107FA0007DCC8ECC9FCCABCCB0CCB5CCBBCC08952B
:087FB000089508950895089555
:107FE000DFCFDFCFDFCFDFCFDFCFDFCFDFCFDFCF21
:087FF000DFCFDFCFDFCFDFCFD1
:087FF8000070000010DFFBDC4B
:040000030000700089
:00000001FF
